{
  "_format": "hh-sol-artifact-1",
  "contractName": "MLM",
  "sourceName": "contracts/MLM.sol",
  "abi": [
    {
      "inputs": [
        {
          "internalType": "address",
          "name": "tokenAddress",
          "type": "address"
        }
      ],
      "stateMutability": "nonpayable",
      "type": "constructor"
    },
    {
      "inputs": [],
      "name": "_id",
      "outputs": [
        {
          "internalType": "uint256",
          "name": "",
          "type": "uint256"
        }
      ],
      "stateMutability": "view",
      "type": "function"
    },
    {
      "inputs": [
        {
          "internalType": "address",
          "name": "_account",
          "type": "address"
        },
        {
          "internalType": "address",
          "name": "_refAccount",
          "type": "address"
        },
        {
          "internalType": "uint256",
          "name": "_amount",
          "type": "uint256"
        }
      ],
      "name": "addUser",
      "outputs": [],
      "stateMutability": "nonpayable",
      "type": "function"
    },
    {
      "inputs": [
        {
          "internalType": "address",
          "name": "",
          "type": "address"
        }
      ],
      "name": "isUserExists",
      "outputs": [
        {
          "internalType": "bool",
          "name": "",
          "type": "bool"
        }
      ],
      "stateMutability": "view",
      "type": "function"
    },
    {
      "inputs": [],
      "name": "token",
      "outputs": [
        {
          "internalType": "contract IERC20",
          "name": "",
          "type": "address"
        }
      ],
      "stateMutability": "view",
      "type": "function"
    },
    {
      "inputs": [
        {
          "internalType": "address",
          "name": "",
          "type": "address"
        }
      ],
      "name": "users",
      "outputs": [
        {
          "internalType": "uint256",
          "name": "id",
          "type": "uint256"
        },
        {
          "internalType": "address",
          "name": "userAccount",
          "type": "address"
        },
        {
          "internalType": "address",
          "name": "refAccount",
          "type": "address"
        },
        {
          "internalType": "uint256",
          "name": "amount",
          "type": "uint256"
        },
        {
          "internalType": "uint256",
          "name": "refAmount",
          "type": "uint256"
        }
      ],
      "stateMutability": "view",
      "type": "function"
    }
  ],
  "bytecode": "0x6080604052600160005534801561001557600080fd5b506040516108cb3803806108cb8339810160408190526100349161019f565b600180546001600160a01b03199081166001600160a01b039384161782556040805160a081018252600080548252733b6e6168c0335261c6e1a006323b7667afbddc7b602080840182815294840183815260646060860190815260808601858152939094526003825293517f6b90832bbc0aa05df880938995f099db160f4a8884ab6cc3ccfd75c88dbafdcc5593517f6b90832bbc0aa05df880938995f099db160f4a8884ab6cc3ccfd75c88dbafdcd8054871691891691909117905591517f6b90832bbc0aa05df880938995f099db160f4a8884ab6cc3ccfd75c88dbafdce805490951696169590951790925592517f6b90832bbc0aa05df880938995f099db160f4a8884ab6cc3ccfd75c88dbafdcf55517f6b90832bbc0aa05df880938995f099db160f4a8884ab6cc3ccfd75c88dbafdd05560029091527f071bc42f639150bd1a106c1ea16acf98b245c9c91edf8d8cf1ed28daded502ee805460ff191690911790556101cf565b6000602082840312156101b157600080fd5b81516001600160a01b03811681146101c857600080fd5b9392505050565b6106ed806101de6000396000f3fe608060405234801561001057600080fd5b50600436106100575760003560e01c8063051802371461005c578063092ed5be14610078578063509222cd1461008d578063a87430ba146100c0578063fc0c546a1461013d575b600080fd5b61006560005481565b6040519081526020015b60405180910390f35b61008b6100863660046105b9565b610168565b005b6100b061009b3660046105f5565b60026020526000908152604090205460ff1681565b604051901515815260200161006f565b6101096100ce3660046105f5565b60036020819052600091825260409091208054600182015460028301549383015460049093015491936001600160a01b039182169391169185565b604080519586526001600160a01b03948516602087015292909316918401919091526060830152608082015260a00161006f565b600154610150906001600160a01b031681565b6040516001600160a01b03909116815260200161006f565b6001600160a01b0383166000908152600260205260409020548390839060ff16156101da5760405162461bcd60e51b815260206004820152601760248201527f5573657220616c7265616479207265676973746572656400000000000000000060448201526064015b60405180910390fd5b6001600160a01b03811660009081526002602052604090205460ff166102375760405162461bcd60e51b8152602060048201526012602482015271149959995c9c985b08139bdd08119bdd5b9960721b60448201526064016101d1565b6000831161027c5760405162461bcd60e51b81526020600482015260126024820152710416d6f756e74206d757374206265203e20360741b60448201526064016101d1565b6001546040516323b872dd60e01b8152336004820152306024820152604481018590526001600160a01b03909116906323b872dd906064016020604051808303816000875af11580156102d3573d6000803e3d6000fd5b505050506040513d601f19601f820116820180604052508101906102f79190610617565b61033b5760405162461bcd60e51b8152602060048201526015602482015274151bdad95b881d1c985b9cd9995c8819985a5b1959605a1b60448201526064016101d1565b600160008082825461034d919061064f565b90915550506040805160a0810182526000805482526001600160a01b0380891660208085018281528a841686880190815260608088018c81526080890188815295885260038086528a892099518a5593516001808b018054928a166001600160a01b031993841617905593516002808c01805492909a16919092161790975551928801929092559251600490960195909555918252848320805460ff191690911790558351928301845260328352601e9083015260149282019290925285915b6003811015610593576001600160a01b038316158061044557506001600160a01b03831660009081526002602052604090205460ff16155b610593576000606483836003811061045f5761045f610668565b602002015161046e908961067e565b6104789190610695565b6001600160a01b0385166000908152600360205260408120600401805492935083929091906104a890849061064f565b909155505060015460405163a9059cbb60e01b81526001600160a01b038681166004830152602482018490529091169063a9059cbb906044016020604051808303816000875af1158015610500573d6000803e3d6000fd5b505050506040513d601f19601f820116820180604052508101906105249190610617565b6105695760405162461bcd60e51b815260206004820152601660248201527514995dd85c99081d1c985b9cd9995c8819985a5b195960521b60448201526064016101d1565b506001600160a01b039283166000908152600360205260409020600201549092169160010161040d565b5050505050505050565b80356001600160a01b03811681146105b457600080fd5b919050565b6000806000606084860312156105ce57600080fd5b6105d78461059d565b92506105e56020850161059d565b9150604084013590509250925092565b60006020828403121561060757600080fd5b6106108261059d565b9392505050565b60006020828403121561062957600080fd5b8151801515811461061057600080fd5b634e487b7160e01b600052601160045260246000fd5b8082018082111561066257610662610639565b92915050565b634e487b7160e01b600052603260045260246000fd5b808202811582820484141761066257610662610639565b6000826106b257634e487b7160e01b600052601260045260246000fd5b50049056fea2646970667358221220cbf809952ffc78c39a7fd23f03a57ec764d459b36cdedbf63c4f51b284aeea3d64736f6c634300081c0033",
  "linkReferences": {},
  "deployedLinkReferences": {}
}